{
  "_format": "hh-sol-artifact-1",
  "contractName": "ConnectorFactory",
  "sourceName": "contracts/connector/ConnectorFactory.sol",
  "abi": [
    {
      "anonymous": false,
      "inputs": [
        {
          "indexed": true,
          "internalType": "address",
          "name": "caller",
          "type": "address"
        },
        {
          "indexed": false,
          "internalType": "address",
          "name": "connector",
          "type": "address"
        }
      ],
      "name": "LogCreateConnector",
      "type": "event"
    },
    {
      "inputs": [
        {
          "internalType": "address",
          "name": "_collateral",
          "type": "address"
        }
      ],
      "name": "__ConnectorFactory_init",
      "outputs": [],
      "stateMutability": "nonpayable",
      "type": "function"
    },
    {
      "inputs": [],
      "name": "collateral",
      "outputs": [
        {
          "internalType": "address",
          "name": "",
          "type": "address"
        }
      ],
      "stateMutability": "view",
      "type": "function"
    },
    {
      "inputs": [
        {
          "internalType": "address",
          "name": "",
          "type": "address"
        }
      ],
      "name": "connectors",
      "outputs": [
        {
          "internalType": "address",
          "name": "",
          "type": "address"
        }
      ],
      "stateMutability": "view",
      "type": "function"
    },
    {
      "inputs": [
        {
          "internalType": "address",
          "name": "syUSD",
          "type": "address"
        }
      ],
      "name": "createConnector",
      "outputs": [
        {
          "internalType": "address",
          "name": "",
          "type": "address"
        }
      ],
      "stateMutability": "nonpayable",
      "type": "function"
    }
  ],
  "bytecode": "0x608060405234801561001057600080fd5b50612b34806100206000396000f3fe608060405234801561001057600080fd5b506004361061004c5760003560e01c80630e53aae9146100515780630f01fcda14610093578063d8dfeb45146100b9578063f65b38cc146100c1575b600080fd5b6100776004803603602081101561006757600080fd5b50356001600160a01b03166100e9565b604080516001600160a01b039092168252519081900360200190f35b610077600480360360208110156100a957600080fd5b50356001600160a01b0316610104565b610077610282565b6100e7600480360360208110156100d757600080fd5b50356001600160a01b0316610291565b005b6001602052600090815260409020546001600160a01b031681565b336000908152600160205260408120546001600160a01b031615610167576040805162461bcd60e51b815260206004820152601560248201527411549497d0d3d3939150d513d497d1561254d51151605a1b604482015290519081900360640190fd5b60025460405160009133916001600160a01b03909116908590610189906103b2565b6001600160a01b03938416815291831660208301529091166040808301919091525190819003606001906000f0801580156101c8573d6000803e3d6000fd5b5090506001600160a01b038116610219576040805162461bcd60e51b815260206004820152601060248201526f4552525f4352454154455f50524f585960801b604482015290519081900360640190fd5b3360008181526001602090815260409182902080546001600160a01b0319166001600160a01b038616908117909155825190815291518493927fe8b4e3a3f1609f31db589d36e07a41ec70a99c827647fe21e0b71a34815e761692908290030190a29392505050565b6002546001600160a01b031681565b600054610100900460ff16806102aa57506102aa61039b565b806102b8575060005460ff16155b6102f35760405162461bcd60e51b815260040180806020018281038252602e815260200180612ad1602e913960400191505060405180910390fd5b600054610100900460ff1615801561031e576000805460ff1961ff0019909116610100171660011790555b6001600160a01b03821661036a576040805162461bcd60e51b815260206004820152600e60248201526d11549497d0d3d31310551154905360921b604482015290519081900360640190fd5b600280546001600160a01b0319166001600160a01b0384161790558015610397576000805461ff00191690555b5050565b60006103a6306103ac565b15905090565b3b151590565b612711806103c08339019056fe608060405234801561001057600080fd5b5060405162002711380380620027118339818101604052606081101561003557600080fd5b50805160208201516040909201519091906001600160a01b038316610095576040805162461bcd60e51b815260206004820152601160248201527011549497d3d5d3915497d2539590531251607a1b604482015290519081900360640190fd5b6001600160a01b0382166100f0576040805162461bcd60e51b815260206004820152601660248201527f4552525f434f4c4c41544552414c5f494e56414c494400000000000000000000604482015290519081900360640190fd5b6001600160a01b03811661013d576040805162461bcd60e51b815260206004820152600f60248201526e11549497d554d117d2539590531251608a1b604482015290519081900360640190fd5b600080546001600160a01b039485166001600160a01b031991821617909155600180549385169382169390931790925560028054919093169116179055612587806200018a6000396000f3fe6080604052600436106101185760003560e01c80638da5cb5b116100a0578063cfb5192811610064578063cfb5192814610382578063d0beef0c14610435578063d97711101461044a578063e26cdf4014610489578063fd87818d146104b55761011f565b80638da5cb5b146102dd5780638f32d59b146102f2578063b6f7132f14610307578063c0d66cef1461033a578063c9f211681461036d5761011f565b80634529c192116100e75780634529c192146101f157806364f0d1ee146102315780636f9a31f4146102465780636ff1c9bc1461027957806384d268d0146102ac5761011f565b806309f83252146101245780631352f72b1461015f5780631ba17881146101915780631e9a6950146101b85761011f565b3661011f57005b600080fd5b34801561013057600080fd5b5061015d6004803603604081101561014757600080fd5b506001600160a01b0381351690602001356104ca565b005b61015d6004803603606081101561017557600080fd5b506001600160a01b038135169060208101359060400135610838565b34801561019d57600080fd5b506101a6610a1b565b60408051918252519081900360200190f35b3480156101c457600080fd5b5061015d600480360360408110156101db57600080fd5b506001600160a01b038135169060200135610a97565b61021d6004803603604081101561020757600080fd5b506001600160a01b038135169060200135610c21565b604080519115158252519081900360200190f35b34801561023d57600080fd5b506101a6610e17565b34801561025257600080fd5b506101a66004803603602081101561026957600080fd5b50356001600160a01b0316610e62565b34801561028557600080fd5b5061015d6004803603602081101561029c57600080fd5b50356001600160a01b0316610fa9565b3480156102b857600080fd5b506102c16110c3565b604080516001600160a01b039092168252519081900360200190f35b3480156102e957600080fd5b506102c16110d2565b3480156102fe57600080fd5b5061021d6110e1565b34801561031357600080fd5b506101a66004803603602081101561032a57600080fd5b50356001600160a01b03166110f2565b34801561034657600080fd5b5061015d6004803603602081101561035d57600080fd5b50356001600160a01b03166111bb565b34801561037957600080fd5b506102c16112b9565b34801561038e57600080fd5b506101a6600480360360208110156103a557600080fd5b8101906020810181356401000000008111156103c057600080fd5b8201836020820111156103d257600080fd5b803590602001918460018302840111640100000000831117156103f457600080fd5b91908080601f0160208091040260200160405190810160405280939291908181526020018383808284376000920191909152509295506112c8945050505050565b34801561044157600080fd5b506101a66112e6565b34801561045657600080fd5b5061015d6004803603606081101561046d57600080fd5b506001600160a01b038135169060208101359060400135611331565b61015d6004803603604081101561049f57600080fd5b506001600160a01b0381351690602001356115b8565b3480156104c157600080fd5b5061021d61178f565b6104d26110e1565b610511576040805162461bcd60e51b8152602060048201526017602482015260008051602061248b833981519152604482015290519081900360640190fd5b600254610529906001600160a01b03163330846117da565b60025460015460408051636eb1769f60e11b81523060048201526001600160a01b03928316602482015290518493929092169163dd62ed3e91604480820192602092909190829003018186803b15801561058257600080fd5b505afa158015610596573d6000803e3d6000fd5b505050506040513d60208110156105ac57600080fd5b505110156105f1576001546002546105d2916001600160a01b0391821691166000611834565b6001546002546105f1916001600160a01b039182169116600019611834565b600160009054906101000a90046001600160a01b03166001600160a01b0316637d11b7fc82610744856001600160a01b03166395d89b416040518163ffffffff1660e01b815260040160006040518083038186803b15801561065257600080fd5b505afa158015610666573d6000803e3d6000fd5b505050506040513d6000823e601f3d908101601f19168201604052602081101561068f57600080fd5b81019080805160405193929190846401000000008211156106af57600080fd5b9083019060208201858111156106c457600080fd5b82516401000000008111828201881017156106de57600080fd5b82525081516020918201929091019080838360005b8381101561070b5781810151838201526020016106f3565b50505050905090810190601f1680156107385780820380516001836020036101000a031916815260200191505b506040525050506112c8565b6040518363ffffffff1660e01b81526004018083815260200182815260200192505050600060405180830381600087803b15801561078157600080fd5b505af1158015610795573d6000803e3d6000fd5b505050506107a282611947565b600054600254604080516370a0823160e01b81523060048201529051610834936001600160a01b039081169316916370a08231916024808301926020929190829003018186803b1580156107f557600080fd5b505afa158015610809573d6000803e3d6000fd5b505050506040513d602081101561081f57600080fd5b50516002546001600160a01b03169190611cc0565b5050565b6108406110e1565b61087f576040805162461bcd60e51b8152602060048201526017602482015260008051602061248b833981519152604482015290519081900360640190fd5b6108898383611d12565b600160009054906101000a90046001600160a01b03166001600160a01b0316635594e89a6108e9856001600160a01b03166395d89b416040518163ffffffff1660e01b815260040160006040518083038186803b15801561065257600080fd5b604080516370a0823160e01b815230600482015290516001600160a01b038816916370a08231916024808301926020929190829003018186803b15801561092f57600080fd5b505afa158015610943573d6000803e3d6000fd5b505050506040513d602081101561095957600080fd5b5051604080516001600160e01b031960e086901b168152600481019390935260248301919091526044820185905251606480830192600092919082900301818387803b1580156109a857600080fd5b505af11580156109bc573d6000803e3d6000fd5b5050600054600254604080516370a0823160e01b81523060048201529051610a1695506001600160a01b03938416945091909216916370a08231916024808301926020929190829003018186803b1580156107f557600080fd5b505050565b6001546040805163ce60965160e01b815230600482015290516000926001600160a01b03169163ce609651916024808301926020929190829003018186803b158015610a6657600080fd5b505afa158015610a7a573d6000803e3d6000fd5b505050506040513d6020811015610a9057600080fd5b5051905090565b610a9f6110e1565b610ade576040805162461bcd60e51b8152602060048201526017602482015260008051602061248b833981519152604482015290519081900360640190fd5b6000610b60836001600160a01b03166377c7b8fc6040518163ffffffff1660e01b815260040160206040518083038186803b158015610b1c57600080fd5b505afa158015610b30573d6000803e3d6000fd5b505050506040513d6020811015610b4657600080fd5b5051610b5a84670de0b6b3a76400006120f5565b90612155565b9050600160009054906101000a90046001600160a01b03166001600160a01b031663673da154610bc2856001600160a01b03166395d89b416040518163ffffffff1660e01b815260040160006040518083038186803b15801561065257600080fd5b836040518363ffffffff1660e01b81526004018083815260200182815260200192505050600060405180830381600087803b158015610c0057600080fd5b505af1158015610c14573d6000803e3d6000fd5b50505050610a1683611947565b6000610c2b6110e1565b610c6a576040805162461bcd60e51b8152602060048201526017602482015260008051602061248b833981519152604482015290519081900360640190fd5b60008211610cbf576040805162461bcd60e51b815260206004820152601b60248201527f616d6f756e74206d757374206c61726765207468616e207a65726f0000000000604482015290519081900360640190fd5b610cc98383611d12565b600160009054906101000a90046001600160a01b03166001600160a01b031663a0908b0b610d29856001600160a01b03166395d89b416040518163ffffffff1660e01b815260040160006040518083038186803b15801561065257600080fd5b604080516370a0823160e01b815230600482015290516001600160a01b038816916370a08231916024808301926020929190829003018186803b158015610d6f57600080fd5b505afa158015610d83573d6000803e3d6000fd5b505050506040513d6020811015610d9957600080fd5b5051604080516001600160e01b031960e086901b168152600481019390935260248301919091525160448083019260209291908290030181600087803b158015610de257600080fd5b505af1158015610df6573d6000803e3d6000fd5b505050506040513d6020811015610e0c57600080fd5b505190505b92915050565b6001546040805163153b4f3360e11b815230600482015290516000926001600160a01b031691632a769e66916024808301926020929190829003018186803b158015610a6657600080fd5b6000610fa1670de0b6b3a7640000610b5a846001600160a01b03166377c7b8fc6040518163ffffffff1660e01b815260040160206040518083038186803b158015610eac57600080fd5b505afa158015610ec0573d6000803e3d6000fd5b505050506040513d6020811015610ed657600080fd5b5051600154604080516395d89b4160e01b815290516001600160a01b03928316926343192d7d923092610f2b928c16916395d89b41916004808301926000929190829003018186803b15801561065257600080fd5b6040518363ffffffff1660e01b815260040180836001600160a01b031681526020018281526020019250505060206040518083038186803b158015610f6f57600080fd5b505afa158015610f83573d6000803e3d6000fd5b505050506040513d6020811015610f9957600080fd5b5051906120f5565b90505b919050565b610fb16110e1565b610ff0576040805162461bcd60e51b8152602060048201526017602482015260008051602061248b833981519152604482015290519081900360640190fd5b6001600160a01b0381166110305760405133904780156108fc02916000818181858888f1935050505015801561102a573d6000803e3d6000fd5b506110c0565b600054604080516370a0823160e01b815230600482015290516110c0926001600160a01b0390811692908516916370a0823191602480820192602092909190829003018186803b15801561108357600080fd5b505afa158015611097573d6000803e3d6000fd5b505050506040513d60208110156110ad57600080fd5b50516001600160a01b0384169190611cc0565b50565b6001546001600160a01b031681565b6000546001600160a01b031681565b6000546001600160a01b0316331490565b6000610fa1670de0b6b3a7640000610b5a846001600160a01b03166377c7b8fc6040518163ffffffff1660e01b815260040160206040518083038186803b15801561113c57600080fd5b505afa158015611150573d6000803e3d6000fd5b505050506040513d602081101561116657600080fd5b5051600154604080516395d89b4160e01b815290516001600160a01b039283169263c124302f923092610f2b928c16916395d89b41916004808301926000929190829003018186803b15801561065257600080fd5b6111c36110e1565b611202576040805162461bcd60e51b8152602060048201526017602482015260008051602061248b833981519152604482015290519081900360640190fd5b600160009054906101000a90046001600160a01b03166001600160a01b03166365e08417611262836001600160a01b03166395d89b416040518163ffffffff1660e01b815260040160006040518083038186803b15801561065257600080fd5b6040518263ffffffff1660e01b815260040180828152602001915050600060405180830381600087803b15801561129857600080fd5b505af11580156112ac573d6000803e3d6000fd5b505050506110c081611947565b6002546001600160a01b031681565b805160009082906112dd575060009050610fa4565b50506020015190565b6001546040805163533abf6360e11b815230600482015290516000926001600160a01b03169163a6757ec6916024808301926020929190829003018186803b158015610a6657600080fd5b6113396110e1565b611378576040805162461bcd60e51b8152602060048201526017602482015260008051602061248b833981519152604482015290519081900360640190fd5b600254611390906001600160a01b03163330856117da565b60025460015460408051636eb1769f60e11b81523060048201526001600160a01b03928316602482015290518593929092169163dd62ed3e91604480820192602092909190829003018186803b1580156113e957600080fd5b505afa1580156113fd573d6000803e3d6000fd5b505050506040513d602081101561141357600080fd5b5051101561145857600154600254611439916001600160a01b0391821691166000611834565b600154600254611458916001600160a01b039182169116600019611834565b6000611496846001600160a01b03166377c7b8fc6040518163ffffffff1660e01b815260040160206040518083038186803b158015610b1c57600080fd5b9050600160009054906101000a90046001600160a01b03166001600160a01b031663193e85c3846114f9876001600160a01b03166395d89b416040518163ffffffff1660e01b815260040160006040518083038186803b15801561065257600080fd5b846040518463ffffffff1660e01b8152600401808481526020018381526020018281526020019350505050600060405180830381600087803b15801561153e57600080fd5b505af1158015611552573d6000803e3d6000fd5b5050505061155f84611947565b600054600254604080516370a0823160e01b815230600482015290516115b2936001600160a01b039081169316916370a08231916024808301926020929190829003018186803b1580156107f557600080fd5b50505050565b6115c06110e1565b6115ff576040805162461bcd60e51b8152602060048201526017602482015260008051602061248b833981519152604482015290519081900360640190fd5b6116098282611d12565b600160009054906101000a90046001600160a01b03166001600160a01b0316632ef402f5611669846001600160a01b03166395d89b416040518163ffffffff1660e01b815260040160006040518083038186803b15801561065257600080fd5b604080516370a0823160e01b815230600482015290516001600160a01b038716916370a08231916024808301926020929190829003018186803b1580156116af57600080fd5b505afa1580156116c3573d6000803e3d6000fd5b505050506040513d60208110156116d957600080fd5b5051604080516001600160e01b031960e086901b1681526004810193909352602483019190915251604480830192600092919082900301818387803b15801561172157600080fd5b505af1158015611735573d6000803e3d6000fd5b5050600054600254604080516370a0823160e01b8152306004820152905161083495506001600160a01b03938416945091909216916370a08231916024808301926020929190829003018186803b1580156107f557600080fd5b6001546040805163df7f602360e01b815230600482015290516000926001600160a01b03169163df7f6023916024808301926020929190829003018186803b158015610a6657600080fd5b604080516001600160a01b0380861660248301528416604482015260648082018490528251808303909101815260849091019091526020810180516001600160e01b03166323b872dd60e01b1790526115b29085906121bc565b8015806118ba575060408051636eb1769f60e11b81523060048201526001600160a01b03848116602483015291519185169163dd62ed3e91604480820192602092909190829003018186803b15801561188c57600080fd5b505afa1580156118a0573d6000803e3d6000fd5b505050506040513d60208110156118b657600080fd5b5051155b6118f55760405162461bcd60e51b815260040180806020018281038252603681526020018061251c6036913960400191505060405180910390fd5b604080516001600160a01b038416602482015260448082018490528251808303909101815260649091019091526020810180516001600160e01b031663095ea7b360e01b179052610a169084906121bc565b6000816001600160a01b03166370a08231306040518263ffffffff1660e01b815260040180826001600160a01b0316815260200191505060206040518083038186803b15801561199657600080fd5b505afa1580156119aa573d6000803e3d6000fd5b505050506040513d60208110156119c057600080fd5b505111156110c057806001600160a01b031663357930f46040518163ffffffff1660e01b815260040160206040518083038186803b158015611a0157600080fd5b505afa158015611a15573d6000803e3d6000fd5b505050506040513d6020811015611a2b57600080fd5b505115611b3457604080516370a0823160e01b815230600482015290516001600160a01b03831691634eafe80b9183916370a08231916024808301926020929190829003018186803b158015611a8057600080fd5b505afa158015611a94573d6000803e3d6000fd5b505050506040513d6020811015611aaa57600080fd5b5051604080516001600160e01b031960e085901b1681526004810192909252600060248301819052905160448084019382900301818387803b158015611aef57600080fd5b505af1158015611b03573d6000803e3d6000fd5b50506040513392504780156108fc029250906000818181858888f1935050505015801561102a573d6000803e3d6000fd5b604080516370a0823160e01b815230600482015290516001600160a01b0383169163441a3e709183916370a08231916024808301926020929190829003018186803b158015611b8257600080fd5b505afa158015611b96573d6000803e3d6000fd5b505050506040513d6020811015611bac57600080fd5b5051604080516001600160e01b031960e085901b1681526004810192909252600060248301819052905160448084019382900301818387803b158015611bf157600080fd5b505af1158015611c05573d6000803e3d6000fd5b505050506000816001600160a01b031663fc0c546a6040518163ffffffff1660e01b815260040160206040518083038186803b158015611c4457600080fd5b505afa158015611c58573d6000803e3d6000fd5b505050506040513d6020811015611c6e57600080fd5b5051604080516370a0823160e01b815230600482015290519192506108349133916001600160a01b038516916370a0823191602480820192602092909190829003018186803b15801561108357600080fd5b604080516001600160a01b038416602482015260448082018490528251808303909101815260649091019091526020810180516001600160e01b031663a9059cbb60e01b179052610a169084906121bc565b8015610834576000829050826001600160a01b031663357930f46040518163ffffffff1660e01b815260040160206040518083038186803b158015611d5657600080fd5b505afa158015611d6a573d6000803e3d6000fd5b505050506040513d6020811015611d8057600080fd5b505115611e355781341015611dd0576040805162461bcd60e51b81526020600482015260116024820152700c2dadeeadce840dcdee840cadcdeeaced607b1b604482015290519081900360640190fd5b826001600160a01b0316639da90f193460006040518363ffffffff1660e01b8152600401808281526020019150506000604051808303818588803b158015611e1757600080fd5b505af1158015611e2b573d6000803e3d6000fd5b5050505050611fc7565b6000836001600160a01b031663fc0c546a6040518163ffffffff1660e01b815260040160206040518083038186803b158015611e7057600080fd5b505afa158015611e84573d6000803e3d6000fd5b505050506040513d6020811015611e9a57600080fd5b50519050611eb36001600160a01b0382163330866117da565b60408051636eb1769f60e11b81523060048201526001600160a01b0384811660248301529151859284169163dd62ed3e916044808301926020929190829003018186803b158015611f0357600080fd5b505afa158015611f17573d6000803e3d6000fd5b505050506040513d6020811015611f2d57600080fd5b50511015611f6057611f4a6001600160a01b038216836000611834565b611f606001600160a01b03821683600019611834565b60408051631c57762b60e31b81526004810185905260006024820181905291516001600160a01b0387169263e2bbb158926044808201939182900301818387803b158015611fad57600080fd5b505af1158015611fc1573d6000803e3d6000fd5b50505050505b604080516370a0823160e01b815230600482015290516001600160a01b038516916370a08231916024808301926020929190829003018186803b15801561200d57600080fd5b505afa158015612021573d6000803e3d6000fd5b505050506040513d602081101561203757600080fd5b505160015460408051636eb1769f60e11b81523060048201526001600160a01b03928316602482015290519184169163dd62ed3e91604480820192602092909190829003018186803b15801561208c57600080fd5b505afa1580156120a0573d6000803e3d6000fd5b505050506040513d60208110156120b657600080fd5b50511015610a16576001546120d9906001600160a01b0383811691166000611834565b600154610a16906001600160a01b038381169116600019611834565b60008261210457506000610e11565b8282028284828161211157fe5b041461214e5760405162461bcd60e51b81526004018080602001828103825260218152602001806124d16021913960400191505060405180910390fd5b9392505050565b60008082116121ab576040805162461bcd60e51b815260206004820152601a60248201527f536166654d6174683a206469766973696f6e206279207a65726f000000000000604482015290519081900360640190fd5b8183816121b457fe5b049392505050565b6060612211826040518060400160405280602081526020017f5361666545524332303a206c6f772d6c6576656c2063616c6c206661696c6564815250856001600160a01b031661226d9092919063ffffffff16565b805190915015610a165780806020019051602081101561223057600080fd5b5051610a165760405162461bcd60e51b815260040180806020018281038252602a8152602001806124f2602a913960400191505060405180910390fd5b606061227c8484600085612284565b949350505050565b6060824710156122c55760405162461bcd60e51b81526004018080602001828103825260268152602001806124ab6026913960400191505060405180910390fd5b6122ce856123e0565b61231f576040805162461bcd60e51b815260206004820152601d60248201527f416464726573733a2063616c6c20746f206e6f6e2d636f6e7472616374000000604482015290519081900360640190fd5b60006060866001600160a01b031685876040518082805190602001908083835b6020831061235e5780518252601f19909201916020918201910161233f565b6001836020036101000a03801982511681845116808217855250505050505090500191505060006040518083038185875af1925050503d80600081146123c0576040519150601f19603f3d011682016040523d82523d6000602084013e6123c5565b606091505b50915091506123d58282866123e6565b979650505050505050565b3b151590565b606083156123f557508161214e565b8251156124055782518084602001fd5b8160405162461bcd60e51b81526004018080602001828103825283818151815260200191508051906020019080838360005b8381101561244f578181015183820152602001612437565b50505050905090810190601f16801561247c5780820380516001836020036101000a031916815260200191505b509250505060405180910390fdfe63616c6c6572206973206e6f7420746865206f776e6572000000000000000000416464726573733a20696e73756666696369656e742062616c616e636520666f722063616c6c536166654d6174683a206d756c7469706c69636174696f6e206f766572666c6f775361666545524332303a204552433230206f7065726174696f6e20646964206e6f7420737563636565645361666545524332303a20617070726f76652066726f6d206e6f6e2d7a65726f20746f206e6f6e2d7a65726f20616c6c6f77616e6365a2646970667358221220d04e018e58183dbdc1ab384ea14e2332cf4e091fd37704c05f7b9fddd12a660564736f6c634300060c0033496e697469616c697a61626c653a20636f6e747261637420697320616c726561647920696e697469616c697a6564a2646970667358221220417cd6e49f8b5fe9db79014432cafaa826afeee7a060edf0be6785ae51b27ebe64736f6c634300060c0033",
  "linkReferences": {},
  "deployedLinkReferences": {}
}