{
  "_format": "hh-sol-artifact-1",
  "contractName": "StrategyIdle",
  "sourceName": "contracts/strategies/StrategyIdle.sol",
  "abi": [
    {
      "anonymous": false,
      "inputs": [
        {
          "indexed": true,
          "internalType": "address",
          "name": "previousOwner",
          "type": "address"
        },
        {
          "indexed": true,
          "internalType": "address",
          "name": "newOwner",
          "type": "address"
        }
      ],
      "name": "OwnershipTransferred",
      "type": "event"
    },
    {
      "anonymous": false,
      "inputs": [
        {
          "indexed": false,
          "internalType": "address",
          "name": "account",
          "type": "address"
        }
      ],
      "name": "Paused",
      "type": "event"
    },
    {
      "anonymous": false,
      "inputs": [
        {
          "indexed": false,
          "internalType": "address",
          "name": "account",
          "type": "address"
        }
      ],
      "name": "Unpaused",
      "type": "event"
    },
    {
      "inputs": [
        {
          "internalType": "address",
          "name": "admin",
          "type": "address"
        },
        {
          "internalType": "address",
          "name": "_wantAddress",
          "type": "address"
        }
      ],
      "name": "__StrategyIdle_init",
      "outputs": [],
      "stateMutability": "nonpayable",
      "type": "function"
    },
    {
      "inputs": [],
      "name": "buyBackAddress",
      "outputs": [
        {
          "internalType": "address",
          "name": "",
          "type": "address"
        }
      ],
      "stateMutability": "view",
      "type": "function"
    },
    {
      "inputs": [
        {
          "internalType": "uint256",
          "name": "_wantAmt",
          "type": "uint256"
        }
      ],
      "name": "deposit",
      "outputs": [
        {
          "internalType": "uint256",
          "name": "",
          "type": "uint256"
        }
      ],
      "stateMutability": "nonpayable",
      "type": "function"
    },
    {
      "inputs": [
        {
          "internalType": "address",
          "name": "_token",
          "type": "address"
        },
        {
          "internalType": "uint256",
          "name": "_amount",
          "type": "uint256"
        },
        {
          "internalType": "address",
          "name": "_to",
          "type": "address"
        }
      ],
      "name": "emergencyWithdraw",
      "outputs": [],
      "stateMutability": "nonpayable",
      "type": "function"
    },
    {
      "inputs": [],
      "name": "govAddress",
      "outputs": [
        {
          "internalType": "address",
          "name": "",
          "type": "address"
        }
      ],
      "stateMutability": "view",
      "type": "function"
    },
    {
      "inputs": [],
      "name": "lastEarnBlock",
      "outputs": [
        {
          "internalType": "uint256",
          "name": "",
          "type": "uint256"
        }
      ],
      "stateMutability": "view",
      "type": "function"
    },
    {
      "inputs": [],
      "name": "owner",
      "outputs": [
        {
          "internalType": "address",
          "name": "",
          "type": "address"
        }
      ],
      "stateMutability": "view",
      "type": "function"
    },
    {
      "inputs": [],
      "name": "pause",
      "outputs": [],
      "stateMutability": "nonpayable",
      "type": "function"
    },
    {
      "inputs": [],
      "name": "paused",
      "outputs": [
        {
          "internalType": "bool",
          "name": "",
          "type": "bool"
        }
      ],
      "stateMutability": "view",
      "type": "function"
    },
    {
      "inputs": [],
      "name": "renounceOwnership",
      "outputs": [],
      "stateMutability": "nonpayable",
      "type": "function"
    },
    {
      "inputs": [
        {
          "internalType": "address",
          "name": "_buyBackAddress",
          "type": "address"
        }
      ],
      "name": "setBuyBackAddress",
      "outputs": [],
      "stateMutability": "nonpayable",
      "type": "function"
    },
    {
      "inputs": [
        {
          "internalType": "address",
          "name": "_govAddress",
          "type": "address"
        }
      ],
      "name": "setGov",
      "outputs": [],
      "stateMutability": "nonpayable",
      "type": "function"
    },
    {
      "inputs": [
        {
          "internalType": "address",
          "name": "newOwner",
          "type": "address"
        }
      ],
      "name": "transferOwnership",
      "outputs": [],
      "stateMutability": "nonpayable",
      "type": "function"
    },
    {
      "inputs": [],
      "name": "unpause",
      "outputs": [],
      "stateMutability": "nonpayable",
      "type": "function"
    },
    {
      "inputs": [],
      "name": "wantAddress",
      "outputs": [
        {
          "internalType": "address",
          "name": "",
          "type": "address"
        }
      ],
      "stateMutability": "view",
      "type": "function"
    },
    {
      "inputs": [],
      "name": "wantLockedLocal",
      "outputs": [
        {
          "internalType": "uint256",
          "name": "",
          "type": "uint256"
        }
      ],
      "stateMutability": "view",
      "type": "function"
    },
    {
      "inputs": [],
      "name": "wantLockedPrincipal",
      "outputs": [
        {
          "internalType": "uint256",
          "name": "",
          "type": "uint256"
        }
      ],
      "stateMutability": "view",
      "type": "function"
    },
    {
      "inputs": [],
      "name": "wantLockedTotal",
      "outputs": [
        {
          "internalType": "uint256",
          "name": "",
          "type": "uint256"
        }
      ],
      "stateMutability": "view",
      "type": "function"
    },
    {
      "inputs": [
        {
          "internalType": "uint256",
          "name": "_wantAmt",
          "type": "uint256"
        }
      ],
      "name": "withdraw",
      "outputs": [
        {
          "internalType": "uint256",
          "name": "",
          "type": "uint256"
        }
      ],
      "stateMutability": "nonpayable",
      "type": "function"
    },
    {
      "stateMutability": "payable",
      "type": "receive"
    }
  ],
  "bytecode": "0x608060405234801561001057600080fd5b50611600806100206000396000f3fe6080604052600436106101185760003560e01c8063783478ad116100a0578063b020cddc11610064578063b020cddc146102ef578063b6b55f251461032a578063cfad57a214610354578063e7a0367914610387578063f2fde38b1461039c5761011f565b8063783478ad146102685780638456cb591461027d57806387f947e5146102925780638da5cb5b146102a7578063ad740f8c146102bc5761011f565b806342da4eb3116100e757806342da4eb3146101a157806346008a07146101b6578063551512de146101e75780635c975abb1461022a578063715018a6146102535761011f565b8063020d9b50146101245780630fa4e01e1461014b5780632e1a7d4d146101605780633f4ba83a1461018a5761011f565b3661011f57005b600080fd5b34801561013057600080fd5b506101396103cf565b60408051918252519081900360200190f35b34801561015757600080fd5b506101396103de565b34801561016c57600080fd5b506101396004803603602081101561018357600080fd5b50356103e4565b34801561019657600080fd5b5061019f61052b565b005b3480156101ad57600080fd5b50610139610585565b3480156101c257600080fd5b506101cb61058f565b604080516001600160a01b039092168252519081900360200190f35b3480156101f357600080fd5b5061019f6004803603606081101561020a57600080fd5b506001600160a01b0381358116916020810135916040909101351661059e565b34801561023657600080fd5b5061023f61064a565b604080519115158252519081900360200190f35b34801561025f57600080fd5b5061019f610653565b34801561027457600080fd5b506101cb610711565b34801561028957600080fd5b5061019f610720565b34801561029e57600080fd5b50610139610778565b3480156102b357600080fd5b506101cb6107fa565b3480156102c857600080fd5b5061019f600480360360208110156102df57600080fd5b50356001600160a01b0316610809565b3480156102fb57600080fd5b5061019f6004803603604081101561031257600080fd5b506001600160a01b0381358116916020013516610859565b34801561033657600080fd5b506101396004803603602081101561034d57600080fd5b5035610944565b34801561036057600080fd5b5061019f6004803603602081101561037757600080fd5b50356001600160a01b0316610a08565b34801561039357600080fd5b506101cb610a7a565b3480156103a857600080fd5b5061019f600480360360208110156103bf57600080fd5b50356001600160a01b0316610a89565b60006103d9610585565b905090565b60ca5481565b60006103ee610b9e565b6001600160a01b03166103ff6107fa565b6001600160a01b03161461045a576040805162461bcd60e51b815260206004820181905260248201527f4f776e61626c653a2063616c6c6572206973206e6f7420746865206f776e6572604482015290519081900360640190fd5b600260655414156104b2576040805162461bcd60e51b815260206004820152601f60248201527f5265656e7472616e637947756172643a207265656e7472616e742063616c6c00604482015290519081900360640190fd5b60026065556104bf61064a565b15610504576040805162461bcd60e51b815260206004820152601060248201526f14185d5cd8589b194e881c185d5cd95960821b604482015290519081900360640190fd5b61052261050f6107fa565b60cc546001600160a01b03169084610ba2565b50600160655590565b60c9546001600160a01b0316331461057b576040805162461bcd60e51b815260206004820152600e60248201526d139bdd08185d5d1a1bdc9a5e995960921b604482015290519081900360640190fd5b610583610bf4565b565b60006103d9610778565b60c9546001600160a01b031681565b60c9546001600160a01b031633146105e6576040805162461bcd60e51b8152602060048083019190915260248201526310b3b7bb60e11b604482015290519081900360640190fd5b60cc546001600160a01b0384811691161415610631576040805162461bcd60e51b8152602060048201526005602482015264217361666560d81b604482015290519081900360640190fd5b6106456001600160a01b0384168284610ba2565b505050565b60975460ff1690565b61065b610b9e565b6001600160a01b031661066c6107fa565b6001600160a01b0316146106c7576040805162461bcd60e51b815260206004820181905260248201527f4f776e61626c653a2063616c6c6572206973206e6f7420746865206f776e6572604482015290519081900360640190fd5b6033546040516000916001600160a01b0316907f8be0079c531659141344cd1fd0a4f28419497f9722a3daafe3b4186f6b6457e0908390a3603380546001600160a01b0319169055565b60cb546001600160a01b031681565b60c9546001600160a01b03163314610770576040805162461bcd60e51b815260206004820152600e60248201526d139bdd08185d5d1a1bdc9a5e995960921b604482015290519081900360640190fd5b610583610c94565b60cc54604080516370a0823160e01b8152306004820152905160009283926001600160a01b03909116916370a0823191602480820192602092909190829003018186803b1580156107c857600080fd5b505afa1580156107dc573d6000803e3d6000fd5b505050506040513d60208110156107f257600080fd5b505191505090565b6033546001600160a01b031690565b60c9546001600160a01b0316331461011f576040805162461bcd60e51b815260206004820152600e60248201526d139bdd08185d5d1a1bdc9a5e995960921b604482015290519081900360640190fd5b600054610100900460ff16806108725750610872610d17565b80610880575060005460ff16155b6108bb5760405162461bcd60e51b815260040180806020018281038252602e815260200180611573602e913960400191505060405180910390fd5b600054610100900460ff161580156108e6576000805460ff1961ff0019909116610100171660011790555b60c980546001600160a01b038086166001600160a01b03199283161790925560cc80549285169290911691909117905561091e610d28565b610926610dda565b61092e610e6f565b8015610645576000805461ff0019169055505050565b60006002606554141561099e576040805162461bcd60e51b815260206004820152601f60248201527f5265656e7472616e637947756172643a207265656e7472616e742063616c6c00604482015290519081900360640190fd5b60026065556109ab61064a565b156109f0576040805162461bcd60e51b815260206004820152601060248201526f14185d5cd8589b194e881c185d5cd95960821b604482015290519081900360640190fd5b60cc54610522906001600160a01b0316333085610f0c565b60c9546001600160a01b03163314610a58576040805162461bcd60e51b815260206004820152600e60248201526d139bdd08185d5d1a1bdc9a5e995960921b604482015290519081900360640190fd5b60c980546001600160a01b0319166001600160a01b0392909216919091179055565b60cc546001600160a01b031681565b610a91610b9e565b6001600160a01b0316610aa26107fa565b6001600160a01b031614610afd576040805162461bcd60e51b815260206004820181905260248201527f4f776e61626c653a2063616c6c6572206973206e6f7420746865206f776e6572604482015290519081900360640190fd5b6001600160a01b038116610b425760405162461bcd60e51b81526004018080602001828103825260268152602001806115276026913960400191505060405180910390fd5b6033546040516001600160a01b038084169216907f8be0079c531659141344cd1fd0a4f28419497f9722a3daafe3b4186f6b6457e090600090a3603380546001600160a01b0319166001600160a01b0392909216919091179055565b3390565b604080516001600160a01b038416602482015260448082018490528251808303909101815260649091019091526020810180516001600160e01b031663a9059cbb60e01b179052610645908490610f6c565b610bfc61064a565b610c44576040805162461bcd60e51b815260206004820152601460248201527314185d5cd8589b194e881b9bdd081c185d5cd95960621b604482015290519081900360640190fd5b6097805460ff191690557f5db9ee0a495bf2e6ff9c91a7834c1ba4fdd244a5e8aa4e537bd38aeae4b073aa610c77610b9e565b604080516001600160a01b039092168252519081900360200190a1565b610c9c61064a565b15610ce1576040805162461bcd60e51b815260206004820152601060248201526f14185d5cd8589b194e881c185d5cd95960821b604482015290519081900360640190fd5b6097805460ff191660011790557f62e78cea01bee320cd4e420270b5ea74000d11b0c9f74754ebdbfc544b05a258610c77610b9e565b6000610d223061101d565b15905090565b600054610100900460ff1680610d415750610d41610d17565b80610d4f575060005460ff16155b610d8a5760405162461bcd60e51b815260040180806020018281038252602e815260200180611573602e913960400191505060405180910390fd5b600054610100900460ff16158015610db5576000805460ff1961ff0019909116610100171660011790555b610dbd611023565b610dc56110c3565b8015610dd7576000805461ff00191690555b50565b600054610100900460ff1680610df35750610df3610d17565b80610e01575060005460ff16155b610e3c5760405162461bcd60e51b815260040180806020018281038252602e815260200180611573602e913960400191505060405180910390fd5b600054610100900460ff16158015610e67576000805460ff1961ff0019909116610100171660011790555b610dc56111bc565b600054610100900460ff1680610e885750610e88610d17565b80610e96575060005460ff16155b610ed15760405162461bcd60e51b815260040180806020018281038252602e815260200180611573602e913960400191505060405180910390fd5b600054610100900460ff16158015610efc576000805460ff1961ff0019909116610100171660011790555b610f04611023565b610dc5611262565b604080516001600160a01b0380861660248301528416604482015260648082018490528251808303909101815260849091019091526020810180516001600160e01b03166323b872dd60e01b179052610f66908590610f6c565b50505050565b6060610fc1826040518060400160405280602081526020017f5361666545524332303a206c6f772d6c6576656c2063616c6c206661696c6564815250856001600160a01b031661130d9092919063ffffffff16565b80519091501561064557808060200190516020811015610fe057600080fd5b50516106455760405162461bcd60e51b815260040180806020018281038252602a8152602001806115a1602a913960400191505060405180910390fd5b3b151590565b600054610100900460ff168061103c575061103c610d17565b8061104a575060005460ff16155b6110855760405162461bcd60e51b815260040180806020018281038252602e815260200180611573602e913960400191505060405180910390fd5b600054610100900460ff16158015610dc5576000805460ff1961ff0019909116610100171660011790558015610dd7576000805461ff001916905550565b600054610100900460ff16806110dc57506110dc610d17565b806110ea575060005460ff16155b6111255760405162461bcd60e51b815260040180806020018281038252602e815260200180611573602e913960400191505060405180910390fd5b600054610100900460ff16158015611150576000805460ff1961ff0019909116610100171660011790555b600061115a610b9e565b603380546001600160a01b0319166001600160a01b038316908117909155604051919250906000907f8be0079c531659141344cd1fd0a4f28419497f9722a3daafe3b4186f6b6457e0908290a3508015610dd7576000805461ff001916905550565b600054610100900460ff16806111d557506111d5610d17565b806111e3575060005460ff16155b61121e5760405162461bcd60e51b815260040180806020018281038252602e815260200180611573602e913960400191505060405180910390fd5b600054610100900460ff16158015611249576000805460ff1961ff0019909116610100171660011790555b60016065558015610dd7576000805461ff001916905550565b600054610100900460ff168061127b575061127b610d17565b80611289575060005460ff16155b6112c45760405162461bcd60e51b815260040180806020018281038252602e815260200180611573602e913960400191505060405180910390fd5b600054610100900460ff161580156112ef576000805460ff1961ff0019909116610100171660011790555b6097805460ff191690558015610dd7576000805461ff001916905550565b606061131c8484600085611326565b90505b9392505050565b6060824710156113675760405162461bcd60e51b815260040180806020018281038252602681526020018061154d6026913960400191505060405180910390fd5b6113708561101d565b6113c1576040805162461bcd60e51b815260206004820152601d60248201527f416464726573733a2063616c6c20746f206e6f6e2d636f6e7472616374000000604482015290519081900360640190fd5b60006060866001600160a01b031685876040518082805190602001908083835b602083106114005780518252601f1990920191602091820191016113e1565b6001836020036101000a03801982511681845116808217855250505050505090500191505060006040518083038185875af1925050503d8060008114611462576040519150601f19603f3d011682016040523d82523d6000602084013e611467565b606091505b5091509150611477828286611482565b979650505050505050565b6060831561149157508161131f565b8251156114a15782518084602001fd5b8160405162461bcd60e51b81526004018080602001828103825283818151815260200191508051906020019080838360005b838110156114eb5781810151838201526020016114d3565b50505050905090810190601f1680156115185780820380516001836020036101000a031916815260200191505b509250505060405180910390fdfe4f776e61626c653a206e6577206f776e657220697320746865207a65726f2061646472657373416464726573733a20696e73756666696369656e742062616c616e636520666f722063616c6c496e697469616c697a61626c653a20636f6e747261637420697320616c726561647920696e697469616c697a65645361666545524332303a204552433230206f7065726174696f6e20646964206e6f742073756363656564a26469706673582212201c44b1497cb995af99b50dd2f750f8b3e5320c1070533d70aea214d1418ac07564736f6c634300060c0033",
  "linkReferences": {},
  "deployedLinkReferences": {}
}