{
  "_format": "hh-sol-artifact-1",
  "contractName": "SingleSCToken",
  "sourceName": "contracts/tokens/SingleSCToken.sol",
  "abi": [
    {
      "anonymous": false,
      "inputs": [
        {
          "indexed": true,
          "internalType": "address",
          "name": "owner",
          "type": "address"
        },
        {
          "indexed": true,
          "internalType": "address",
          "name": "spender",
          "type": "address"
        },
        {
          "indexed": false,
          "internalType": "uint256",
          "name": "value",
          "type": "uint256"
        }
      ],
      "name": "Approval",
      "type": "event"
    },
    {
      "anonymous": false,
      "inputs": [
        {
          "indexed": true,
          "internalType": "address",
          "name": "from",
          "type": "address"
        },
        {
          "indexed": true,
          "internalType": "address",
          "name": "to",
          "type": "address"
        },
        {
          "indexed": false,
          "internalType": "uint256",
          "name": "value",
          "type": "uint256"
        }
      ],
      "name": "Transfer",
      "type": "event"
    },
    {
      "inputs": [
        {
          "internalType": "address",
          "name": "admin",
          "type": "address"
        },
        {
          "internalType": "string",
          "name": "name_",
          "type": "string"
        },
        {
          "internalType": "string",
          "name": "symbol_",
          "type": "string"
        },
        {
          "internalType": "address",
          "name": "_token",
          "type": "address"
        },
        {
          "internalType": "address",
          "name": "_wbnbAddress",
          "type": "address"
        },
        {
          "internalType": "address",
          "name": "_strategy",
          "type": "address"
        },
        {
          "internalType": "address",
          "name": "_priceGetter",
          "type": "address"
        }
      ],
      "name": "__SingleSCToken_init",
      "outputs": [],
      "stateMutability": "nonpayable",
      "type": "function"
    },
    {
      "inputs": [
        {
          "internalType": "uint256",
          "name": "_amount",
          "type": "uint256"
        },
        {
          "internalType": "uint256",
          "name": "_minShares",
          "type": "uint256"
        }
      ],
      "name": "_deposit",
      "outputs": [],
      "stateMutability": "nonpayable",
      "type": "function"
    },
    {
      "inputs": [
        {
          "internalType": "address",
          "name": "owner",
          "type": "address"
        },
        {
          "internalType": "address",
          "name": "spender",
          "type": "address"
        }
      ],
      "name": "allowance",
      "outputs": [
        {
          "internalType": "uint256",
          "name": "",
          "type": "uint256"
        }
      ],
      "stateMutability": "view",
      "type": "function"
    },
    {
      "inputs": [
        {
          "internalType": "uint256",
          "name": "_amount",
          "type": "uint256"
        }
      ],
      "name": "amountToShares",
      "outputs": [
        {
          "internalType": "uint256",
          "name": "",
          "type": "uint256"
        }
      ],
      "stateMutability": "view",
      "type": "function"
    },
    {
      "inputs": [
        {
          "internalType": "address",
          "name": "spender",
          "type": "address"
        },
        {
          "internalType": "uint256",
          "name": "amount",
          "type": "uint256"
        }
      ],
      "name": "approve",
      "outputs": [
        {
          "internalType": "bool",
          "name": "",
          "type": "bool"
        }
      ],
      "stateMutability": "nonpayable",
      "type": "function"
    },
    {
      "inputs": [],
      "name": "approveToken",
      "outputs": [],
      "stateMutability": "nonpayable",
      "type": "function"
    },
    {
      "inputs": [],
      "name": "balance",
      "outputs": [
        {
          "internalType": "uint256",
          "name": "",
          "type": "uint256"
        }
      ],
      "stateMutability": "view",
      "type": "function"
    },
    {
      "inputs": [
        {
          "internalType": "address",
          "name": "account",
          "type": "address"
        }
      ],
      "name": "balanceOf",
      "outputs": [
        {
          "internalType": "uint256",
          "name": "",
          "type": "uint256"
        }
      ],
      "stateMutability": "view",
      "type": "function"
    },
    {
      "inputs": [],
      "name": "balanceStrategy",
      "outputs": [
        {
          "internalType": "uint256",
          "name": "",
          "type": "uint256"
        }
      ],
      "stateMutability": "view",
      "type": "function"
    },
    {
      "inputs": [],
      "name": "calcPoolValueInToken",
      "outputs": [
        {
          "internalType": "uint256",
          "name": "",
          "type": "uint256"
        }
      ],
      "stateMutability": "view",
      "type": "function"
    },
    {
      "inputs": [],
      "name": "decimals",
      "outputs": [
        {
          "internalType": "uint8",
          "name": "",
          "type": "uint8"
        }
      ],
      "stateMutability": "view",
      "type": "function"
    },
    {
      "inputs": [
        {
          "internalType": "address",
          "name": "spender",
          "type": "address"
        },
        {
          "internalType": "uint256",
          "name": "subtractedValue",
          "type": "uint256"
        }
      ],
      "name": "decreaseAllowance",
      "outputs": [
        {
          "internalType": "bool",
          "name": "",
          "type": "bool"
        }
      ],
      "stateMutability": "nonpayable",
      "type": "function"
    },
    {
      "inputs": [
        {
          "internalType": "uint256",
          "name": "_amount",
          "type": "uint256"
        },
        {
          "internalType": "uint256",
          "name": "_minShares",
          "type": "uint256"
        }
      ],
      "name": "deposit",
      "outputs": [],
      "stateMutability": "nonpayable",
      "type": "function"
    },
    {
      "inputs": [
        {
          "internalType": "uint256",
          "name": "_minShares",
          "type": "uint256"
        }
      ],
      "name": "depositBNB",
      "outputs": [],
      "stateMutability": "payable",
      "type": "function"
    },
    {
      "inputs": [],
      "name": "depositPaused",
      "outputs": [
        {
          "internalType": "bool",
          "name": "",
          "type": "bool"
        }
      ],
      "stateMutability": "view",
      "type": "function"
    },
    {
      "inputs": [
        {
          "internalType": "address",
          "name": "_token",
          "type": "address"
        },
        {
          "internalType": "uint256",
          "name": "_amount",
          "type": "uint256"
        },
        {
          "internalType": "address",
          "name": "_to",
          "type": "address"
        }
      ],
      "name": "emergencyWithdraw",
      "outputs": [],
      "stateMutability": "nonpayable",
      "type": "function"
    },
    {
      "inputs": [],
      "name": "getPrice",
      "outputs": [
        {
          "internalType": "uint256",
          "name": "",
          "type": "uint256"
        }
      ],
      "stateMutability": "view",
      "type": "function"
    },
    {
      "inputs": [],
      "name": "getPricePerFullShare",
      "outputs": [
        {
          "internalType": "uint256",
          "name": "",
          "type": "uint256"
        }
      ],
      "stateMutability": "view",
      "type": "function"
    },
    {
      "inputs": [],
      "name": "govAddress",
      "outputs": [
        {
          "internalType": "address",
          "name": "",
          "type": "address"
        }
      ],
      "stateMutability": "view",
      "type": "function"
    },
    {
      "inputs": [
        {
          "internalType": "address",
          "name": "spender",
          "type": "address"
        },
        {
          "internalType": "uint256",
          "name": "addedValue",
          "type": "uint256"
        }
      ],
      "name": "increaseAllowance",
      "outputs": [
        {
          "internalType": "bool",
          "name": "",
          "type": "bool"
        }
      ],
      "stateMutability": "nonpayable",
      "type": "function"
    },
    {
      "inputs": [],
      "name": "isSCToken",
      "outputs": [
        {
          "internalType": "bool",
          "name": "",
          "type": "bool"
        }
      ],
      "stateMutability": "view",
      "type": "function"
    },
    {
      "inputs": [],
      "name": "isWbnb",
      "outputs": [
        {
          "internalType": "bool",
          "name": "",
          "type": "bool"
        }
      ],
      "stateMutability": "view",
      "type": "function"
    },
    {
      "inputs": [],
      "name": "name",
      "outputs": [
        {
          "internalType": "string",
          "name": "",
          "type": "string"
        }
      ],
      "stateMutability": "view",
      "type": "function"
    },
    {
      "inputs": [],
      "name": "pauseDeposit",
      "outputs": [],
      "stateMutability": "nonpayable",
      "type": "function"
    },
    {
      "inputs": [],
      "name": "pauseWithdraw",
      "outputs": [],
      "stateMutability": "nonpayable",
      "type": "function"
    },
    {
      "inputs": [],
      "name": "priceGetter",
      "outputs": [
        {
          "internalType": "contract IPrices",
          "name": "",
          "type": "address"
        }
      ],
      "stateMutability": "view",
      "type": "function"
    },
    {
      "inputs": [
        {
          "internalType": "address",
          "name": "_govAddress",
          "type": "address"
        }
      ],
      "name": "setGovAddress",
      "outputs": [],
      "stateMutability": "nonpayable",
      "type": "function"
    },
    {
      "inputs": [
        {
          "internalType": "uint256",
          "name": "_shares",
          "type": "uint256"
        }
      ],
      "name": "sharesToAmount",
      "outputs": [
        {
          "internalType": "uint256",
          "name": "",
          "type": "uint256"
        }
      ],
      "stateMutability": "view",
      "type": "function"
    },
    {
      "inputs": [],
      "name": "strategy",
      "outputs": [
        {
          "internalType": "address",
          "name": "",
          "type": "address"
        }
      ],
      "stateMutability": "view",
      "type": "function"
    },
    {
      "inputs": [
        {
          "internalType": "string",
          "name": "source",
          "type": "string"
        }
      ],
      "name": "stringToBytes32",
      "outputs": [
        {
          "internalType": "bytes32",
          "name": "result",
          "type": "bytes32"
        }
      ],
      "stateMutability": "pure",
      "type": "function"
    },
    {
      "inputs": [],
      "name": "symbol",
      "outputs": [
        {
          "internalType": "string",
          "name": "",
          "type": "string"
        }
      ],
      "stateMutability": "view",
      "type": "function"
    },
    {
      "inputs": [],
      "name": "token",
      "outputs": [
        {
          "internalType": "address",
          "name": "",
          "type": "address"
        }
      ],
      "stateMutability": "view",
      "type": "function"
    },
    {
      "inputs": [],
      "name": "totalSupply",
      "outputs": [
        {
          "internalType": "uint256",
          "name": "",
          "type": "uint256"
        }
      ],
      "stateMutability": "view",
      "type": "function"
    },
    {
      "inputs": [
        {
          "internalType": "address",
          "name": "recipient",
          "type": "address"
        },
        {
          "internalType": "uint256",
          "name": "amount",
          "type": "uint256"
        }
      ],
      "name": "transfer",
      "outputs": [
        {
          "internalType": "bool",
          "name": "",
          "type": "bool"
        }
      ],
      "stateMutability": "nonpayable",
      "type": "function"
    },
    {
      "inputs": [
        {
          "internalType": "address",
          "name": "sender",
          "type": "address"
        },
        {
          "internalType": "address",
          "name": "recipient",
          "type": "address"
        },
        {
          "internalType": "uint256",
          "name": "amount",
          "type": "uint256"
        }
      ],
      "name": "transferFrom",
      "outputs": [
        {
          "internalType": "bool",
          "name": "",
          "type": "bool"
        }
      ],
      "stateMutability": "nonpayable",
      "type": "function"
    },
    {
      "inputs": [],
      "name": "unpauseDeposit",
      "outputs": [],
      "stateMutability": "nonpayable",
      "type": "function"
    },
    {
      "inputs": [],
      "name": "unpauseWithdraw",
      "outputs": [],
      "stateMutability": "nonpayable",
      "type": "function"
    },
    {
      "inputs": [],
      "name": "wbnbAddress",
      "outputs": [
        {
          "internalType": "address",
          "name": "",
          "type": "address"
        }
      ],
      "stateMutability": "view",
      "type": "function"
    },
    {
      "inputs": [
        {
          "internalType": "uint256",
          "name": "_shares",
          "type": "uint256"
        },
        {
          "internalType": "uint256",
          "name": "_minAmount",
          "type": "uint256"
        }
      ],
      "name": "withdraw",
      "outputs": [],
      "stateMutability": "nonpayable",
      "type": "function"
    },
    {
      "inputs": [
        {
          "internalType": "uint256",
          "name": "_shares",
          "type": "uint256"
        },
        {
          "internalType": "uint256",
          "name": "_minAmount",
          "type": "uint256"
        }
      ],
      "name": "withdrawBNB",
      "outputs": [],
      "stateMutability": "nonpayable",
      "type": "function"
    },
    {
      "inputs": [],
      "name": "withdrawPaused",
      "outputs": [
        {
          "internalType": "bool",
          "name": "",
          "type": "bool"
        }
      ],
      "stateMutability": "view",
      "type": "function"
    },
    {
      "stateMutability": "payable",
      "type": "receive"
    }
  ],
  "bytecode": "0x608060405234801561001057600080fd5b50612d50806100206000396000f3fe60806040526004361061024a5760003560e01c806364ae4ca611610139578063a5524935116100b6578063ceed1b901161007a578063ceed1b901461060e578063cfb5192814610623578063dd62ed3e14610643578063e2bbb15814610663578063f320772314610683578063fc0c546a146106a357610251565b8063a552493514610584578063a8c62e76146105a4578063a9059cbb146105b9578063b69ef8a8146105d9578063b811540e146105ee57610251565b806395d89b41116100fd57806395d89b411461051257806398d5fdca1461052757806399b71d5c1461053c5780639da90f1914610551578063a457c2d71461056457610251565b806364ae4ca61461049357806369026e88146104b357806370a08231146104c85780637137ef99146104e857806377c7b8fc146104fd57610251565b806346008a07116101c75780635af2ad0a1161018b5780635af2ad0a1461042a5780635bb6d0071461043f5780635d629bb0146104545780636155e3de1461046957806363fe3e3a1461047e57610251565b806346008a07146103935780634eafe80b146103b55780635157ced5146103d5578063551512de146103ea578063555d8ebb1461040a57610251565b80632f3ffb9f1161020e5780632f3ffb9f14610305578063313ce5671461031a578063357930f41461033c5780633950935114610351578063441a3e701461037157610251565b806302befd241461025657806306fdde0314610281578063095ea7b3146102a357806318160ddd146102c357806323b872dd146102e557610251565b3661025157005b600080fd5b34801561026257600080fd5b5061026b6106b8565b6040516102789190612509565b60405180910390f35b34801561028d57600080fd5b506102966106c8565b604051610278919061251d565b3480156102af57600080fd5b5061026b6102be366004612300565b61075f565b3480156102cf57600080fd5b506102d861077d565b6040516102789190612514565b3480156102f157600080fd5b5061026b610300366004612207565b610783565b34801561031157600080fd5b5061026b61080b565b34801561032657600080fd5b5061032f61081b565b6040516102789190612beb565b34801561034857600080fd5b5061026b610824565b34801561035d57600080fd5b5061026b61036c366004612300565b610834565b34801561037d57600080fd5b5061039161038c366004612461565b610882565b005b34801561039f57600080fd5b506103a86108ad565b604051610278919061249e565b3480156103c157600080fd5b506103916103d0366004612461565b6108bc565b3480156103e157600080fd5b50610391610938565b3480156103f657600080fd5b5061039161040536600461232a565b61099a565b34801561041657600080fd5b506102d8610425366004612431565b610a7a565b34801561043657600080fd5b506102d8610ace565b34801561044b57600080fd5b50610391610b4f565b34801561046057600080fd5b5061026b610bb1565b34801561047557600080fd5b50610391610bb6565b34801561048a57600080fd5b506103a8610c1f565b34801561049f57600080fd5b506103916104ae3660046121b8565b610c2e565b3480156104bf57600080fd5b50610391610c7a565b3480156104d457600080fd5b506102d86104e33660046121b8565b610ce3565b3480156104f457600080fd5b506102d8610cfe565b34801561050957600080fd5b506102d8610d08565b34801561051e57600080fd5b50610296610d65565b34801561053357600080fd5b506102d8610dc6565b34801561054857600080fd5b50610391610ed5565b61039161055f366004612431565b610f14565b34801561057057600080fd5b5061026b61057f366004612300565b610f9a565b34801561059057600080fd5b5061039161059f366004612247565b611002565b3480156105b057600080fd5b506103a8611114565b3480156105c557600080fd5b5061026b6105d4366004612300565b611123565b3480156105e557600080fd5b506102d8611137565b3480156105fa57600080fd5b506102d8610609366004612431565b611180565b34801561061a57600080fd5b506103a86111c3565b34801561062f57600080fd5b506102d861063e36600461238b565b6111d2565b34801561064f57600080fd5b506102d861065e3660046121d3565b6111f0565b34801561066f57600080fd5b5061039161067e366004612461565b61121b565b34801561068f57600080fd5b5061039161069e366004612461565b611288565b3480156106af57600080fd5b506103a86113ac565b609a54600160a01b900460ff1681565b60368054604080516020601f60026000196101006001881615020190951694909404938401819004810282018101909252828152606093909290918301828280156107545780601f1061072957610100808354040283529160200191610754565b820191906000526020600020905b81548152906001019060200180831161073757829003601f168201915b505050505090505b90565b600061077361076c6113bb565b84846113bf565b5060015b92915050565b60355490565b6000610790848484611473565b6108008461079c6113bb565b6107fb85604051806060016040528060288152602001612cce602891396001600160a01b038a166000908152603460205260408120906107da6113bb565b6001600160a01b031681526020810191909152604001600020549190611588565b6113bf565b5060015b9392505050565b609a54600160a81b900460ff1681565b60385460ff1690565b609954600160a01b900460ff1681565b60006107736108416113bb565b846107fb85603460006108526113bb565b6001600160a01b03908116825260208083019390935260409182016000908120918c1681529252902054906115b4565b600061088e83836115d9565b6097549091506108a8906001600160a01b03163383611765565b505050565b6098546001600160a01b031681565b609954600160a01b900460ff166108ee5760405162461bcd60e51b81526004016108e590612680565b60405180910390fd5b60006108fa83836115d9565b9050610905816117bb565b604051339082156108fc029083906000818181858888f19350505050158015610932573d6000803e3d6000fd5b50505050565b609a54600160a01b900460ff166109615760405162461bcd60e51b81526004016108e590612755565b6098546001600160a01b0316331461098b5760405162461bcd60e51b81526004016108e590612b8c565b609a805460ff60a01b19169055565b6098546001600160a01b031633146109c45760405162461bcd60e51b81526004016108e590612662565b6001600160a01b0383163014156109ed5760405162461bcd60e51b81526004016108e590612593565b6001600160a01b038316610a295781471015610a1b5760405162461bcd60e51b81526004016108e590612781565b610a24826118ab565b610a66565b6097546001600160a01b0384811691161415610a665781610a48611137565b1015610a665760405162461bcd60e51b81526004016108e590612781565b6108a86001600160a01b0384168284611765565b600080610a85610cfe565b90506000610a9161077d565b1580610a9b575081155b15610aa7575082610ac5565b610ac2610ab261077d565b610abc8685611902565b9061193c565b90505b9150505b919050565b609b54604080516220d9b560e41b815290516000926001600160a01b03169163020d9b50916004808301926020929190829003018186803b158015610b1257600080fd5b505afa158015610b26573d6000803e3d6000fd5b505050506040513d601f19601f82011682018060405250810190610b4a9190612449565b905090565b609a54600160a81b900460ff16610b785760405162461bcd60e51b81526004016108e590612a88565b6098546001600160a01b03163314610ba25760405162461bcd60e51b81526004016108e590612b8c565b609a805460ff60a81b19169055565b600181565b609a54600160a81b900460ff1615610be05760405162461bcd60e51b81526004016108e590612940565b6098546001600160a01b03163314610c0a5760405162461bcd60e51b81526004016108e590612b8c565b609a805460ff60a81b1916600160a81b179055565b609a546001600160a01b031681565b6098546001600160a01b03163314610c585760405162461bcd60e51b81526004016108e590612b8c565b609880546001600160a01b0319166001600160a01b0392909216919091179055565b609a54600160a01b900460ff1615610ca45760405162461bcd60e51b81526004016108e590612a60565b6098546001600160a01b03163314610cce5760405162461bcd60e51b81526004016108e590612b8c565b609a805460ff60a01b1916600160a01b179055565b6001600160a01b031660009081526033602052604090205490565b6000610b4a610ace565b600080610d13610cfe565b9050610d1d61077d565b1580610d27575080155b15610d3657600091505061075c565b610d59610d4161077d565b610abc610d4c61081b565b849060ff16600a0a611902565b91505061075c565b5090565b60378054604080516020601f60026000196101006001881615020190951694909404938401819004810282018101909252828152606093909290918301828280156107545780601f1061072957610100808354040283529160200191610754565b6000610b4a610dd3610d08565b609954609754604080516395d89b4160e01b815290516001600160a01b03938416936331d98b3f93610e64939116916395d89b4191600480820192600092909190829003018186803b158015610e2857600080fd5b505afa158015610e3c573d6000803e3d6000fd5b505050506040513d6000823e601f3d908101601f1916820160405261063e91908101906123be565b6040518263ffffffff1660e01b8152600401610e809190612514565b60206040518083038186803b158015610e9857600080fd5b505afa158015610eac573d6000803e3d6000fd5b505050506040513d601f19601f82011682018060405250810190610ed09190612449565b61196e565b609b54609754610ef3916001600160a01b039182169116600061198a565b609b54609754610f12916001600160a01b03918216911660001961198a565b565b609a54600160a01b900460ff1615610f3e5760405162461bcd60e51b81526004016108e590612a60565b609954600160a01b900460ff16610f675760405162461bcd60e51b81526004016108e590612680565b34610f845760405162461bcd60e51b81526004016108e5906129f2565b610f8d346118ab565b610f973482611288565b50565b6000610773610fa76113bb565b846107fb85604051806060016040528060258152602001612cf66025913960346000610fd16113bb565b6001600160a01b03908116825260208083019390935260409182016000908120918d16815292529020549190611588565b600054610100900460ff168061101b575061101b611a4d565b80611029575060005460ff16155b6110455760405162461bcd60e51b81526004016108e5906127b8565b600054610100900460ff16158015611070576000805460ff1961ff0019909116610100171660011790555b61107a8787611a5e565b611082611af4565b609780546001600160a01b03199081166001600160a01b038881169190911792839055609b805483168783161790556098805483168c8316179055609a805483168883169081179091556099805460ff60a01b1916948316909114600160a01b02939093179091169084161790556110f8610ed5565b801561110a576000805461ff00191690555b5050505050505050565b609b546001600160a01b031681565b60006107736111306113bb565b8484611473565b6097546040516370a0823160e01b81526000916001600160a01b0316906370a082319061116890309060040161249e565b60206040518083038186803b158015610b1257600080fd5b60008061118b610cfe565b9050600061119761077d565b15806111a1575081155b156111ad575082610ac5565b610ac282610abc6111bc61077d565b8790611902565b6099546001600160a01b031681565b805160009082906111e7575060009050610ac9565b50506020015190565b6001600160a01b03918216600090815260346020908152604080832093909416825291909152205490565b609a54600160a01b900460ff16156112455760405162461bcd60e51b81526004016108e590612a60565b816112625760405162461bcd60e51b81526004016108e5906129f2565b60975461127a906001600160a01b0316333085611b7e565b6112848282611288565b5050565b600260655414156112ab5760405162461bcd60e51b81526004016108e590612aff565b600260655560006112ba610cfe565b609b5460405163b6b55f2560e01b81529192506000916001600160a01b039091169063b6b55f25906112f0908790600401612514565b602060405180830381600087803b15801561130a57600080fd5b505af115801561131e573d6000803e3d6000fd5b505050506040513d601f19601f820116820180604052508101906113429190612449565b905061134c61077d565b1580159061135957508115155b156113775761137482610abc61136d61077d565b8490611902565b90505b828110156113975760405162461bcd60e51b81526004016108e59061288c565b6113a13382611b9f565b505060016065555050565b6097546001600160a01b031681565b3390565b6001600160a01b0383166113e55760405162461bcd60e51b81526004016108e5906129ae565b6001600160a01b03821661140b5760405162461bcd60e51b81526004016108e5906125b2565b6001600160a01b0380841660008181526034602090815260408083209487168084529490915290819020849055517f8c5be1e5ebec7d5bd14f71427d1e84f3dd0314c0f7b2291e5b200ac8c7c3b92590611466908590612514565b60405180910390a3505050565b6001600160a01b0383166114995760405162461bcd60e51b81526004016108e590612969565b6001600160a01b0382166114bf5760405162461bcd60e51b81526004016108e590612550565b6114ca8383836108a8565b61150781604051806060016040528060268152602001612ca8602691396001600160a01b0386166000908152603360205260409020549190611588565b6001600160a01b03808516600090815260336020526040808220939093559084168152205461153690826115b4565b6001600160a01b0380841660008181526033602052604090819020939093559151908516907fddf252ad1be2c89b69c2b068fc378daa952ba7f163c4a11628f55a4df523b3ef90611466908590612514565b600081848411156115ac5760405162461bcd60e51b81526004016108e5919061251d565b505050900390565b6000828201838110156108045760405162461bcd60e51b81526004016108e59061262b565b6000600260655414156115fe5760405162461bcd60e51b81526004016108e590612aff565b6002606555609a54600160a81b900460ff161561162d5760405162461bcd60e51b81526004016108e590612940565b8261164a5760405162461bcd60e51b81526004016108e5906125f4565b600061165533610ce3565b9050808411156116775760405162461bcd60e51b81526004016108e5906128d1565b600061168285610a7a565b905061168e3386611c5f565b6000611698611137565b90508181101561173757609b546001600160a01b0316632e1a7d4d6116bd8484611d35565b6040518263ffffffff1660e01b81526004016116d99190612514565b602060405180830381600087803b1580156116f357600080fd5b505af1158015611707573d6000803e3d6000fd5b505050506040513d601f19601f8201168201806040525081019061172b9190612449565b50611734611137565b91505b848210156117575760405162461bcd60e51b81526004016108e590612806565b506001606555949350505050565b6108a88363a9059cbb60e01b84846040516024016117849291906124f0565b60408051601f198184030181529190526020810180516001600160e01b03166001600160e01b031990931692909217909152611d5d565b609a546040516370a0823160e01b81526000916001600160a01b0316906370a08231906117ec90309060040161249e565b60206040518083038186803b15801561180457600080fd5b505afa158015611818573d6000803e3d6000fd5b505050506040513d601f19601f8201168201806040525081019061183c9190612449565b905081811061128457609a54604051632e1a7d4d60e01b81526001600160a01b0390911690632e1a7d4d90611875908590600401612514565b600060405180830381600087803b15801561188f57600080fd5b505af11580156118a3573d6000803e3d6000fd5b505050505050565b804710610f9757609a60009054906101000a90046001600160a01b03166001600160a01b031663d0e30db0826040518263ffffffff1660e01b81526004016000604051808303818588803b15801561188f57600080fd5b60008261191157506000610777565b8282028284828161191e57fe5b04146108045760405162461bcd60e51b81526004016108e59061284b565b600080821161195d5760405162461bcd60e51b81526004016108e59061271e565b81838161196657fe5b049392505050565b6000670de0b6b3a76400006119838484611902565b8161196657fe5b801580611a125750604051636eb1769f60e11b81526001600160a01b0384169063dd62ed3e906119c090309086906004016124b2565b60206040518083038186803b1580156119d857600080fd5b505afa1580156119ec573d6000803e3d6000fd5b505050506040513d601f19601f82011682018060405250810190611a109190612449565b155b611a2e5760405162461bcd60e51b81526004016108e590612b36565b6108a88363095ea7b360e01b84846040516024016117849291906124f0565b6000611a5830611dec565b15905090565b600054610100900460ff1680611a775750611a77611a4d565b80611a85575060005460ff16155b611aa15760405162461bcd60e51b81526004016108e5906127b8565b600054610100900460ff16158015611acc576000805460ff1961ff0019909116610100171660011790555b611ad4611df2565b611ade8383611e73565b80156108a8576000805461ff0019169055505050565b600054610100900460ff1680611b0d5750611b0d611a4d565b80611b1b575060005460ff16155b611b375760405162461bcd60e51b81526004016108e5906127b8565b600054610100900460ff16158015611b62576000805460ff1961ff0019909116610100171660011790555b611b6a611f2c565b8015610f97576000805461ff001916905550565b610932846323b872dd60e01b858585604051602401611784939291906124cc565b6001600160a01b038216611bc55760405162461bcd60e51b81526004016108e590612bb4565b611bd1600083836108a8565b603554611bde90826115b4565b6035556001600160a01b038216600090815260336020526040902054611c0490826115b4565b6001600160a01b0383166000818152603360205260408082209390935591519091907fddf252ad1be2c89b69c2b068fc378daa952ba7f163c4a11628f55a4df523b3ef90611c53908590612514565b60405180910390a35050565b6001600160a01b038216611c855760405162461bcd60e51b81526004016108e5906128ff565b611c91826000836108a8565b611cce81604051806060016040528060228152602001612c86602291396001600160a01b0385166000908152603360205260409020549190611588565b6001600160a01b038316600090815260336020526040902055603554611cf49082611d35565b6035556040516000906001600160a01b038416907fddf252ad1be2c89b69c2b068fc378daa952ba7f163c4a11628f55a4df523b3ef90611c53908590612514565b600082821115611d575760405162461bcd60e51b81526004016108e5906126a1565b50900390565b6060611db2826040518060400160405280602081526020017f5361666545524332303a206c6f772d6c6576656c2063616c6c206661696c6564815250856001600160a01b0316611fb39092919063ffffffff16565b8051909150156108a85780806020019051810190611dd0919061236b565b6108a85760405162461bcd60e51b81526004016108e590612ab5565b3b151590565b600054610100900460ff1680611e0b5750611e0b611a4d565b80611e19575060005460ff16155b611e355760405162461bcd60e51b81526004016108e5906127b8565b600054610100900460ff16158015611b6a576000805460ff1961ff0019909116610100171660011790558015610f97576000805461ff001916905550565b600054610100900460ff1680611e8c5750611e8c611a4d565b80611e9a575060005460ff16155b611eb65760405162461bcd60e51b81526004016108e5906127b8565b600054610100900460ff16158015611ee1576000805460ff1961ff0019909116610100171660011790555b8251611ef49060369060208601906120c4565b508151611f089060379060208501906120c4565b506038805460ff1916601217905580156108a8576000805461ff0019169055505050565b600054610100900460ff1680611f455750611f45611a4d565b80611f53575060005460ff16155b611f6f5760405162461bcd60e51b81526004016108e5906127b8565b600054610100900460ff16158015611f9a576000805460ff1961ff0019909116610100171660011790555b60016065558015610f97576000805461ff001916905550565b6060611fc28484600085611fca565b949350505050565b606082471015611fec5760405162461bcd60e51b81526004016108e5906126d8565b611ff585611dec565b6120115760405162461bcd60e51b81526004016108e590612a29565b60006060866001600160a01b0316858760405161202e9190612482565b60006040518083038185875af1925050503d806000811461206b576040519150601f19603f3d011682016040523d82523d6000602084013e612070565b606091505b509150915061208082828661208b565b979650505050505050565b6060831561209a575081610804565b8251156120aa5782518084602001fd5b8160405162461bcd60e51b81526004016108e5919061251d565b828054600181600116156101000203166002900490600052602060002090601f016020900481019282601f1061210557805160ff1916838001178555612132565b82800160010185558215612132579182015b82811115612132578251825591602001919060010190612117565b50610d619291505b80821115610d61576000815560010161213a565b80356001600160a01b038116811461077757600080fd5b600082601f830112612175578081fd5b813561218861218382612c20565b612bf9565b915080825283602082850101111561219f57600080fd5b8060208401602084013760009082016020015292915050565b6000602082840312156121c9578081fd5b610804838361214e565b600080604083850312156121e5578081fd5b6121ef848461214e565b91506121fe846020850161214e565b90509250929050565b60008060006060848603121561221b578081fd5b833561222681612c70565b9250602084013561223681612c70565b929592945050506040919091013590565b600080600080600080600060e0888a031215612261578283fd5b61226b898961214e565b9650602088013567ffffffffffffffff80821115612287578485fd5b6122938b838c01612165565b975060408a01359150808211156122a8578485fd5b506122b58a828b01612165565b9550506122c58960608a0161214e565b93506122d48960808a0161214e565b92506122e38960a08a0161214e565b91506122f28960c08a0161214e565b905092959891949750929550565b60008060408385031215612312578182fd5b61231c848461214e565b946020939093013593505050565b60008060006060848603121561233e578283fd5b833561234981612c70565b925060208401359150604084013561236081612c70565b809150509250925092565b60006020828403121561237c578081fd5b81518015158114610804578182fd5b60006020828403121561239c578081fd5b813567ffffffffffffffff8111156123b2578182fd5b611fc284828501612165565b6000602082840312156123cf578081fd5b815167ffffffffffffffff8111156123e5578182fd5b8201601f810184136123f5578182fd5b805161240361218382612c20565b818152856020838501011115612417578384fd5b612428826020830160208601612c44565b95945050505050565b600060208284031215612442578081fd5b5035919050565b60006020828403121561245a578081fd5b5051919050565b60008060408385031215612473578182fd5b50508035926020909101359150565b60008251612494818460208701612c44565b9190910192915050565b6001600160a01b0391909116815260200190565b6001600160a01b0392831681529116602082015260400190565b6001600160a01b039384168152919092166020820152604081019190915260600190565b6001600160a01b03929092168252602082015260400190565b901515815260200190565b90815260200190565b600060208252825180602084015261253c816040850160208701612c44565b601f01601f19169190910160400192915050565b60208082526023908201527f45524332303a207472616e7366657220746f20746865207a65726f206164647260408201526265737360e81b606082015260800190565b602080825260059082015264217361666560d81b604082015260600190565b60208082526022908201527f45524332303a20617070726f766520746f20746865207a65726f206164647265604082015261737360f01b606082015260800190565b6020808252601d908201527f736861726573206d7573742062652067726561746572207468616e2030000000604082015260600190565b6020808252601b908201527f536166654d6174683a206164646974696f6e206f766572666c6f770000000000604082015260600190565b60208082526004908201526310b3b7bb60e11b604082015260600190565b6020808252600790820152663737ba1031373160c91b604082015260600190565b6020808252601e908201527f536166654d6174683a207375627472616374696f6e206f766572666c6f770000604082015260600190565b60208082526026908201527f416464726573733a20696e73756666696369656e742062616c616e636520666f6040820152651c8818d85b1b60d21b606082015260800190565b6020808252601a908201527f536166654d6174683a206469766973696f6e206279207a65726f000000000000604082015260600190565b60208082526012908201527119195c1bdcda5d081b9bdd081c185d5cd95960721b604082015260600190565b6020808252601b908201527f616d6f756e742067726561746572207468616e20686f6c64696e670000000000604082015260600190565b6020808252602e908201527f496e697469616c697a61626c653a20636f6e747261637420697320616c72656160408201526d191e481a5b9a5d1a585b1a5e995960921b606082015260800190565b60208082526025908201527f646964206e6f74206d656574206d696e696d756d20616d6f756e742072657175604082015264195cdd195960da1b606082015260800190565b60208082526021908201527f536166654d6174683a206d756c7469706c69636174696f6e206f766572666c6f6040820152607760f81b606082015260800190565b60208082526025908201527f646964206e6f74206d656574206d696e696d756d207368617265732072657175604082015264195cdd195960da1b606082015260800190565b602080825260149082015273696e73756666696369656e742062616c616e636560601b604082015260600190565b60208082526021908201527f45524332303a206275726e2066726f6d20746865207a65726f206164647265736040820152607360f81b606082015260800190565b6020808252600f908201526e1dda5d1a191c985dc81c185d5cd959608a1b604082015260600190565b60208082526025908201527f45524332303a207472616e736665722066726f6d20746865207a65726f206164604082015264647265737360d81b606082015260800190565b60208082526024908201527f45524332303a20617070726f76652066726f6d20746865207a65726f206164646040820152637265737360e01b606082015260800190565b6020808252601e908201527f6465706f736974206d7573742062652067726561746572207468616e20300000604082015260600190565b6020808252601d908201527f416464726573733a2063616c6c20746f206e6f6e2d636f6e7472616374000000604082015260600190565b6020808252600e908201526d19195c1bdcda5d081c185d5cd95960921b604082015260600190565b6020808252601390820152721dda5d1a191c985dc81b9bdd081c185d5cd959606a1b604082015260600190565b6020808252602a908201527f5361666545524332303a204552433230206f7065726174696f6e20646964206e6040820152691bdd081cdd58d8d9595960b21b606082015260800190565b6020808252601f908201527f5265656e7472616e637947756172643a207265656e7472616e742063616c6c00604082015260600190565b60208082526036908201527f5361666545524332303a20617070726f76652066726f6d206e6f6e2d7a65726f60408201527520746f206e6f6e2d7a65726f20616c6c6f77616e636560501b606082015260800190565b6020808252600e908201526d139bdd08185d5d1a1bdc9a5e995960921b604082015260600190565b6020808252601f908201527f45524332303a206d696e7420746f20746865207a65726f206164647265737300604082015260600190565b60ff91909116815260200190565b60405181810167ffffffffffffffff81118282101715612c1857600080fd5b604052919050565b600067ffffffffffffffff821115612c36578081fd5b50601f01601f191660200190565b60005b83811015612c5f578181015183820152602001612c47565b838111156109325750506000910152565b6001600160a01b0381168114610f9757600080fdfe45524332303a206275726e20616d6f756e7420657863656564732062616c616e636545524332303a207472616e7366657220616d6f756e7420657863656564732062616c616e636545524332303a207472616e7366657220616d6f756e74206578636565647320616c6c6f77616e636545524332303a2064656372656173656420616c6c6f77616e63652062656c6f77207a65726fa2646970667358221220b914b20880d6255e3846c4446a364e186a31d9c4d6b38c40b52f14cfc7ffe2f564736f6c634300060c0033",
  "linkReferences": {},
  "deployedLinkReferences": {}
}